{
  "contractName": "Auction",
  "abi": [
    {
      "inputs": [
        {
          "internalType": "string",
          "name": "contractName",
          "type": "string"
        },
        {
          "internalType": "uint256",
          "name": "targetAmountEth",
          "type": "uint256"
        },
        {
          "internalType": "uint256",
          "name": "durationInMin",
          "type": "uint256"
        },
        {
          "internalType": "address payable",
          "name": "beneficiaryAddress",
          "type": "address"
        }
      ],
      "stateMutability": "nonpayable",
      "type": "constructor"
    },
    {
      "anonymous": false,
      "inputs": [
        {
          "indexed": false,
          "internalType": "address",
          "name": "addr",
          "type": "address"
        },
        {
          "indexed": false,
          "internalType": "uint256",
          "name": "totalCollected",
          "type": "uint256"
        },
        {
          "indexed": false,
          "internalType": "bool",
          "name": "succeeded",
          "type": "bool"
        }
      ],
      "name": "AuctionFinished",
      "type": "event"
    },
    {
      "inputs": [
        {
          "internalType": "address",
          "name": "",
          "type": "address"
        }
      ],
      "name": "amounts",
      "outputs": [
        {
          "internalType": "uint256",
          "name": "",
          "type": "uint256"
        }
      ],
      "stateMutability": "view",
      "type": "function",
      "constant": true
    },
    {
      "inputs": [],
      "name": "beneficiary",
      "outputs": [
        {
          "internalType": "address payable",
          "name": "",
          "type": "address"
        }
      ],
      "stateMutability": "view",
      "type": "function",
      "constant": true
    },
    {
      "inputs": [],
      "name": "collected",
      "outputs": [
        {
          "internalType": "bool",
          "name": "",
          "type": "bool"
        }
      ],
      "stateMutability": "view",
      "type": "function",
      "constant": true
    },
    {
      "inputs": [],
      "name": "deadline",
      "outputs": [
        {
          "internalType": "uint256",
          "name": "",
          "type": "uint256"
        }
      ],
      "stateMutability": "view",
      "type": "function",
      "constant": true
    },
    {
      "inputs": [],
      "name": "name",
      "outputs": [
        {
          "internalType": "string",
          "name": "",
          "type": "string"
        }
      ],
      "stateMutability": "view",
      "type": "function",
      "constant": true
    },
    {
      "inputs": [],
      "name": "owner",
      "outputs": [
        {
          "internalType": "address",
          "name": "",
          "type": "address"
        }
      ],
      "stateMutability": "view",
      "type": "function",
      "constant": true
    },
    {
      "inputs": [],
      "name": "state",
      "outputs": [
        {
          "internalType": "enum Auction.State",
          "name": "",
          "type": "uint8"
        }
      ],
      "stateMutability": "view",
      "type": "function",
      "constant": true
    },
    {
      "inputs": [],
      "name": "targetAmount",
      "outputs": [
        {
          "internalType": "uint256",
          "name": "",
          "type": "uint256"
        }
      ],
      "stateMutability": "view",
      "type": "function",
      "constant": true
    },
    {
      "inputs": [],
      "name": "totalCollected",
      "outputs": [
        {
          "internalType": "uint256",
          "name": "",
          "type": "uint256"
        }
      ],
      "stateMutability": "view",
      "type": "function",
      "constant": true
    },
    {
      "inputs": [],
      "name": "contribute",
      "outputs": [],
      "stateMutability": "payable",
      "type": "function",
      "payable": true
    },
    {
      "inputs": [],
      "name": "finishAuction",
      "outputs": [],
      "stateMutability": "nonpayable",
      "type": "function"
    },
    {
      "inputs": [],
      "name": "collect",
      "outputs": [],
      "stateMutability": "nonpayable",
      "type": "function"
    },
    {
      "inputs": [],
      "name": "withdraw",
      "outputs": [],
      "stateMutability": "nonpayable",
      "type": "function"
    },
    {
      "inputs": [],
      "name": "beforeDeadline",
      "outputs": [
        {
          "internalType": "bool",
          "name": "",
          "type": "bool"
        }
      ],
      "stateMutability": "view",
      "type": "function",
      "constant": true
    },
    {
      "inputs": [],
      "name": "getTotalCollected",
      "outputs": [
        {
          "internalType": "uint256",
          "name": "",
          "type": "uint256"
        }
      ],
      "stateMutability": "view",
      "type": "function",
      "constant": true
    },
    {
      "inputs": [],
      "name": "inProgress",
      "outputs": [
        {
          "internalType": "bool",
          "name": "",
          "type": "bool"
        }
      ],
      "stateMutability": "view",
      "type": "function",
      "constant": true
    },
    {
      "inputs": [],
      "name": "isSuccessful",
      "outputs": [
        {
          "internalType": "bool",
          "name": "",
          "type": "bool"
        }
      ],
      "stateMutability": "view",
      "type": "function",
      "constant": true
    }
  ],
  "bytecode": "0x60806040523480156200001157600080fd5b50604051620011bb380380620011bb833981810160405260808110156200003757600080fd5b81019080805160405193929190846401000000008211156200005857600080fd5b838201915060208201858111156200006f57600080fd5b82518660018202830111640100000000821117156200008d57600080fd5b8083526020830192505050908051906020019080838360005b83811015620000c3578082015181840152602081019050620000a6565b50505050905090810190601f168015620000f15780820380516001836020036101000a031916815260200191505b5060405260200180519060200190929190805190602001909291908051906020019092919050505083600090805190602001906200013192919062000322565b5073__Util__________________________________63d8916bb9846040518263ffffffff1660e01b81526004018082815260200191505060206040518083038186803b1580156200018257600080fd5b505af415801562000197573d6000803e3d6000fd5b505050506040513d6020811015620001ae57600080fd5b810190808051906020019092919050505060018190555073__Util__________________________________63529b380f836040518263ffffffff1660e01b81526004018082815260200191505060206040518083038186803b1580156200021557600080fd5b505af41580156200022a573d6000803e3d6000fd5b505050506040513d60208110156200024157600080fd5b8101908080519060200190929190505050620002626200031a60201b60201c565b0160028190555080600360006101000a81548173ffffffffffffffffffffffffffffffffffffffff021916908373ffffffffffffffffffffffffffffffffffffffff16021790555033600460006101000a81548173ffffffffffffffffffffffffffffffffffffffff021916908373ffffffffffffffffffffffffffffffffffffffff1602179055506000600460146101000a81548160ff021916908360038111156200030b57fe5b021790555050505050620003d8565b600042905090565b828054600181600116156101000203166002900490600052602060002090601f0160209004810192826200035a5760008555620003a6565b82601f106200037557805160ff1916838001178555620003a6565b82800160010185558215620003a6579182015b82811115620003a557825182559160200191906001019062000388565b5b509050620003b59190620003b9565b5090565b5b80821115620003d4576000816000905550600101620003ba565b5090565b610dd380620003e86000396000f3fe6080604052600436106100fe5760003560e01c80638735181311610095578063d7bb99ba11610064578063d7bb99ba146103bb578063e29eb836146103c5578063e5225381146103f0578063ec4cd0cf14610407578063fbe5d87e14610434576100fe565b806387351813146102ec5780638da5cb5b14610319578063953b8fb81461035a578063c19d93fb14610385576100fe565b8063430ca46f116100d1578063430ca46f1461021657806355a3b2c11461022d57806368bc00411461029257806384bcefd4146102bf576100fe565b806306fdde031461010357806329dcb0cf1461019357806338af3eed146101be5780633ccfd60b146101ff575b600080fd5b34801561010f57600080fd5b5061011861045f565b6040518080602001828103825283818151815260200191508051906020019080838360005b8381101561015857808201518184015260208101905061013d565b50505050905090810190601f1680156101855780820380516001836020036101000a031916815260200191505b509250505060405180910390f35b34801561019f57600080fd5b506101a86104fd565b6040518082815260200191505060405180910390f35b3480156101ca57600080fd5b506101d3610503565b604051808273ffffffffffffffffffffffffffffffffffffffff16815260200191505060405180910390f35b34801561020b57600080fd5b50610214610529565b005b34801561022257600080fd5b5061022b610785565b005b34801561023957600080fd5b5061027c6004803603602081101561025057600080fd5b81019080803573ffffffffffffffffffffffffffffffffffffffff169060200190929190505050610954565b6040518082815260200191505060405180910390f35b34801561029e57600080fd5b506102a761096c565b60405180821515815260200191505060405180910390f35b3480156102cb57600080fd5b506102d461097f565b60405180821515815260200191505060405180910390f35b3480156102f857600080fd5b50610301610992565b60405180821515815260200191505060405180910390f35b34801561032557600080fd5b5061032e6109f1565b604051808273ffffffffffffffffffffffffffffffffffffffff16815260200191505060405180910390f35b34801561036657600080fd5b5061036f610a17565b6040518082815260200191505060405180910390f35b34801561039157600080fd5b5061039a610a1d565b604051808260038111156103aa57fe5b815260200191505060405180910390f35b6103c3610a30565b005b3480156103d157600080fd5b506103da610bb0565b6040518082815260200191505060405180910390f35b3480156103fc57600080fd5b50610405610bb6565b005b34801561041357600080fd5b5061041c610d01565b60405180821515815260200191505060405180910390f35b34801561044057600080fd5b50610449610d30565b6040518082815260200191505060405180910390f35b60008054600181600116156101000203166002900480601f0160208091040260200160405190810160405280929190818152602001828054600181600116156101000203166002900480156104f55780601f106104ca576101008083540402835291602001916104f5565b820191906000526020600020905b8154815290600101906020018083116104d857829003601f168201915b505050505081565b60025481565b600360009054906101000a900473ffffffffffffffffffffffffffffffffffffffff1681565b600180600381111561053757fe5b600460149054906101000a900460ff16600381111561055257fe5b146105c5576040517f08c379a000000000000000000000000000000000000000000000000000000000815260040180806020018281038252600f8152602001807f45737461646f20496e76616c69646f000000000000000000000000000000000081525060200191505060405180910390fd5b6000600560003373ffffffffffffffffffffffffffffffffffffffff1673ffffffffffffffffffffffffffffffffffffffff168152602001908152602001600020541161067a576040517f08c379a00000000000000000000000000000000000000000000000000000000081526004018080602001828103825260198152602001807f4e656e68756d206c616e636520666f6920656d697469646f2e0000000000000081525060200191505060405180910390fd5b6000600560003373ffffffffffffffffffffffffffffffffffffffff1673ffffffffffffffffffffffffffffffffffffffff1681526020019081526020016000205490506000600560003373ffffffffffffffffffffffffffffffffffffffff1673ffffffffffffffffffffffffffffffffffffffff168152602001908152602001600020819055503373ffffffffffffffffffffffffffffffffffffffff166108fc829081150290604051600060405180830381858888f193505050506107815780600560003373ffffffffffffffffffffffffffffffffffffffff1673ffffffffffffffffffffffffffffffffffffffff168152602001908152602001600020819055505b5050565b600080600381111561079357fe5b600460149054906101000a900460ff1660038111156107ae57fe5b14610821576040517f08c379a000000000000000000000000000000000000000000000000000000000815260040180806020018281038252600f8152602001807f45737461646f20496e76616c69646f000000000000000000000000000000000081525060200191505060405180910390fd5b61082961096c565b1561087f576040517f08c379a0000000000000000000000000000000000000000000000000000000008152600401808060200182810382526032815260200180610d436032913960400191505060405180910390fd5b600660009054906101000a900460ff166108bc576001600460146101000a81548160ff021916908360038111156108b257fe5b02179055506108e1565b6002600460146101000a81548160ff021916908360038111156108db57fe5b02179055505b7f236d5677e6ff750148b321678c86818d1c753934fc881581103107776b75d89730600754600660009054906101000a900460ff16604051808473ffffffffffffffffffffffffffffffffffffffff1681526020018381526020018215158152602001935050505060405180910390a150565b60056020528060005260406000206000915090505481565b6000600254610979610d3a565b10905090565b600660009054906101000a900460ff1681565b60008060038111156109a057fe5b600460149054906101000a900460ff1660038111156109bb57fe5b14806109ec5750600260038111156109cf57fe5b600460149054906101000a900460ff1660038111156109ea57fe5b145b905090565b600460009054906101000a900473ffffffffffffffffffffffffffffffffffffffff1681565b60015481565b600460149054906101000a900460ff1681565b6000806003811115610a3e57fe5b600460149054906101000a900460ff166003811115610a5957fe5b14610acc576040517f08c379a000000000000000000000000000000000000000000000000000000000815260040180806020018281038252600f8152602001807f45737461646f20496e76616c69646f000000000000000000000000000000000081525060200191505060405180910390fd5b610ad461096c565b610b29576040517f08c379a0000000000000000000000000000000000000000000000000000000008152600401808060200182810382526029815260200180610d756029913960400191505060405180910390fd5b34600560003373ffffffffffffffffffffffffffffffffffffffff1673ffffffffffffffffffffffffffffffffffffffff168152602001908152602001600020600082825401925050819055503460076000828254019250508190555060015460075410610bad576001600660006101000a81548160ff0219169083151502179055505b50565b60075481565b6002806003811115610bc457fe5b600460149054906101000a900460ff166003811115610bdf57fe5b14610c52576040517f08c379a000000000000000000000000000000000000000000000000000000000815260040180806020018281038252600f8152602001807f45737461646f20496e76616c69646f000000000000000000000000000000000081525060200191505060405180910390fd5b600360009054906101000a900473ffffffffffffffffffffffffffffffffffffffff1673ffffffffffffffffffffffffffffffffffffffff166108fc6007549081150290604051600060405180830381858888f1935050505015610cd9576003600460146101000a81548160ff02191690836003811115610ccf57fe5b0217905550610cfe565b6001600460146101000a81548160ff02191690836003811115610cf857fe5b02179055505b50565b6000600380811115610d0f57fe5b600460149054906101000a900460ff166003811115610d2a57fe5b14905090565b6000600754905090565b60004290509056fe4e616f206520706f73736976656c207465726d696e6172206f206c65696c616f20616e74657320646f20646561646c696e654e616f2073616f207065726d697469646f73206c616e6365732061706f73206f20646561646c696e65a2646970667358221220ddcedbe48d59df799df8a9e1a36907c72bd830a449efa0287fab67248a7f4c0464736f6c63430007040033",
  "immutableReferences": {},
  "source": "// SPDX-License-Identifier: ISC\npragma solidity ^0.7.4;\n\nimport \"./Util.sol\";\n\ncontract Auction {\n\n    using Util for *;\n\n    enum State {\n        Progress,\n        Fail,\n        Success,\n        Paid\n    }\n\n    event AuctionFinished (\n        address addr,\n        uint totalCollected,\n        bool succeeded\n    );\n\n    string public name;  // pode ter diversos leilões\n    uint public targetAmount;  // lance alvo\n    uint public deadline;  //  prazo final\n    address payable public beneficiary; // qualquer pessoa na blockchain possui uma wallet, por isso, address\n    address public owner;\n    State public state;\n\n    mapping (address => uint) public amounts;\n    bool public collected;\n    uint public totalCollected;\n\n    modifier inState(State expectedState) {\n        require(state == expectedState, \"Estado Invalido\");\n        _;\n    }\n\n    constructor (\n        string memory contractName,\n        uint targetAmountEth, // lembrar de confirmar qual o tipo da moeda da blockchain\n        uint durationInMin,\n        address payable beneficiaryAddress) \n        \n    public {\n        name = contractName;\n        targetAmount = Util.etherToWei(targetAmountEth);\n        deadline = currentTime() + Util.minutesToSeconds(durationInMin);\n        beneficiary = beneficiaryAddress;\n        owner = msg.sender;\n        state = State.Progress;\n    }\n\n    function contribute() public payable inState(State.Progress) {\n        require(beforeDeadline(), \"Nao sao permitidos lances apos o deadline\");\n        amounts[msg.sender] += msg.value;\n        totalCollected += msg.value;\n\n        if (totalCollected >= targetAmount) {\n            // atingiu o objetivo\n            collected = true;\n        }\n    }\n\n     function finishAuction() public inState(State.Progress) {\n        require(!beforeDeadline(), \"Nao e possivel terminar o leilao antes do deadline\");\n\n        if (!collected) {\n            state = State.Fail;\n        } else {\n            state = State.Success;\n        }\n\n        emit AuctionFinished(address(this), totalCollected, collected);\n    }\n\n    function collect() public inState(State.Success) {\n        if (beneficiary.send(totalCollected)) {\n            state = State.Paid;\n        } else {\n            state = State.Fail;\n        }\n    }\n\n    function withdraw() public inState(State.Fail) {\n        require(amounts[msg.sender] > 0, \"Nenhum lance foi emitido.\");\n        uint contributed = amounts[msg.sender];\n        amounts[msg.sender] = 0;\n\n        if (!msg.sender.send(contributed)) {\n            amounts[msg.sender] = contributed;\n        }\n    }\n\n\n    function beforeDeadline() public view returns(bool) {\n        return currentTime() < deadline;\n    }\n\n       function currentTime() virtual internal view returns(uint) {\n        return block.timestamp;\n    }\n\n    function getTotalCollected() public view returns(uint) {\n        return totalCollected;\n    }\n\n    function inProgress() public view returns (bool) {\n        return state == State.Progress || state == State.Success;\n    }\n\n    function isSuccessful() public view returns (bool) {\n        return state == State.Paid;\n    }\n\n}",
  "sourcePath": "/home/elton/dsa/formacao_engenheiro_blockchain/03_Desenvolvimento_Aplicacoes_Descentralizadas/Cap05_Contratos_Inteligentes_Avancados/projeto_leilao/contracts/Auction.sol",
  "compiler": {
    "name": "solc",
    "version": "0.7.4+commit.3f05b770.Emscripten.clang"
  },
  "schemaVersion": "3.3.4",
  "updatedAt": "2021-02-27T13:24:20.390Z",
  "networkType": "ethereum",
  "devdoc": {
    "kind": "dev",
    "methods": {},
    "version": 1
  },
  "userdoc": {
    "kind": "user",
    "methods": {},
    "version": 1
  }
}