{
  "contractName": "AuctionTest",
  "abi": [
    {
      "inputs": [
        {
          "internalType": "string",
          "name": "contractName",
          "type": "string"
        },
        {
          "internalType": "uint256",
          "name": "targetAmountEth",
          "type": "uint256"
        },
        {
          "internalType": "uint256",
          "name": "durationInMin",
          "type": "uint256"
        },
        {
          "internalType": "address payable",
          "name": "beneficiaryAddress",
          "type": "address"
        }
      ],
      "stateMutability": "nonpayable",
      "type": "constructor"
    },
    {
      "anonymous": false,
      "inputs": [
        {
          "indexed": false,
          "internalType": "address",
          "name": "addr",
          "type": "address"
        },
        {
          "indexed": false,
          "internalType": "uint256",
          "name": "totalCollected",
          "type": "uint256"
        },
        {
          "indexed": false,
          "internalType": "bool",
          "name": "succeeded",
          "type": "bool"
        }
      ],
      "name": "AuctionFinished",
      "type": "event"
    },
    {
      "inputs": [
        {
          "internalType": "address",
          "name": "",
          "type": "address"
        }
      ],
      "name": "amounts",
      "outputs": [
        {
          "internalType": "uint256",
          "name": "",
          "type": "uint256"
        }
      ],
      "stateMutability": "view",
      "type": "function"
    },
    {
      "inputs": [],
      "name": "beforeDeadline",
      "outputs": [
        {
          "internalType": "bool",
          "name": "",
          "type": "bool"
        }
      ],
      "stateMutability": "view",
      "type": "function"
    },
    {
      "inputs": [],
      "name": "beneficiary",
      "outputs": [
        {
          "internalType": "address payable",
          "name": "",
          "type": "address"
        }
      ],
      "stateMutability": "view",
      "type": "function"
    },
    {
      "inputs": [],
      "name": "collect",
      "outputs": [],
      "stateMutability": "nonpayable",
      "type": "function"
    },
    {
      "inputs": [],
      "name": "collected",
      "outputs": [
        {
          "internalType": "bool",
          "name": "",
          "type": "bool"
        }
      ],
      "stateMutability": "view",
      "type": "function"
    },
    {
      "inputs": [],
      "name": "contribute",
      "outputs": [],
      "stateMutability": "payable",
      "type": "function"
    },
    {
      "inputs": [],
      "name": "deadline",
      "outputs": [
        {
          "internalType": "uint256",
          "name": "",
          "type": "uint256"
        }
      ],
      "stateMutability": "view",
      "type": "function"
    },
    {
      "inputs": [],
      "name": "finishAuction",
      "outputs": [],
      "stateMutability": "nonpayable",
      "type": "function"
    },
    {
      "inputs": [],
      "name": "getTotalCollected",
      "outputs": [
        {
          "internalType": "uint256",
          "name": "",
          "type": "uint256"
        }
      ],
      "stateMutability": "view",
      "type": "function"
    },
    {
      "inputs": [],
      "name": "inProgress",
      "outputs": [
        {
          "internalType": "bool",
          "name": "",
          "type": "bool"
        }
      ],
      "stateMutability": "view",
      "type": "function"
    },
    {
      "inputs": [],
      "name": "isSuccessful",
      "outputs": [
        {
          "internalType": "bool",
          "name": "",
          "type": "bool"
        }
      ],
      "stateMutability": "view",
      "type": "function"
    },
    {
      "inputs": [],
      "name": "name",
      "outputs": [
        {
          "internalType": "string",
          "name": "",
          "type": "string"
        }
      ],
      "stateMutability": "view",
      "type": "function"
    },
    {
      "inputs": [],
      "name": "owner",
      "outputs": [
        {
          "internalType": "address",
          "name": "",
          "type": "address"
        }
      ],
      "stateMutability": "view",
      "type": "function"
    },
    {
      "inputs": [],
      "name": "state",
      "outputs": [
        {
          "internalType": "enum Auction.State",
          "name": "",
          "type": "uint8"
        }
      ],
      "stateMutability": "view",
      "type": "function"
    },
    {
      "inputs": [],
      "name": "targetAmount",
      "outputs": [
        {
          "internalType": "uint256",
          "name": "",
          "type": "uint256"
        }
      ],
      "stateMutability": "view",
      "type": "function"
    },
    {
      "inputs": [],
      "name": "totalCollected",
      "outputs": [
        {
          "internalType": "uint256",
          "name": "",
          "type": "uint256"
        }
      ],
      "stateMutability": "view",
      "type": "function"
    },
    {
      "inputs": [],
      "name": "withdraw",
      "outputs": [],
      "stateMutability": "nonpayable",
      "type": "function"
    },
    {
      "inputs": [
        {
          "internalType": "uint256",
          "name": "newTime",
          "type": "uint256"
        }
      ],
      "name": "setCurrentTime",
      "outputs": [],
      "stateMutability": "nonpayable",
      "type": "function"
    }
  ],
  "bytecode": "0x60806040523480156200001157600080fd5b506040516200121738038062001217833981810160405260808110156200003757600080fd5b81019080805160405193929190846401000000008211156200005857600080fd5b838201915060208201858111156200006f57600080fd5b82518660018202830111640100000000821117156200008d57600080fd5b8083526020830192505050908051906020019080838360005b83811015620000c3578082015181840152602081019050620000a6565b50505050905090810190601f168015620000f15780820380516001836020036101000a031916815260200191505b50604052602001805190602001909291908051906020019092919080519060200190929190505050838383838360009080519060200190620001359291906200032c565b5073__Util__________________________________63d8916bb9846040518263ffffffff1660e01b81526004018082815260200191505060206040518083038186803b1580156200018657600080fd5b505af41580156200019b573d6000803e3d6000fd5b505050506040513d6020811015620001b257600080fd5b810190808051906020019092919050505060018190555073__Util__________________________________63529b380f836040518263ffffffff1660e01b81526004018082815260200191505060206040518083038186803b1580156200021957600080fd5b505af41580156200022e573d6000803e3d6000fd5b505050506040513d60208110156200024557600080fd5b8101908080519060200190929190505050620002666200032260201b60201c565b0160028190555080600360006101000a81548173ffffffffffffffffffffffffffffffffffffffff021916908373ffffffffffffffffffffffffffffffffffffffff16021790555033600460006101000a81548173ffffffffffffffffffffffffffffffffffffffff021916908373ffffffffffffffffffffffffffffffffffffffff1602179055506000600460146101000a81548160ff021916908360038111156200030f57fe5b02179055505050505050505050620003e2565b6000600854905090565b828054600181600116156101000203166002900490600052602060002090601f016020900481019282620003645760008555620003b0565b82601f106200037f57805160ff1916838001178555620003b0565b82800160010185558215620003b0579182015b82811115620003af57825182559160200191906001019062000392565b5b509050620003bf9190620003c3565b5090565b5b80821115620003de576000816000905550600101620003c4565b5090565b610e2580620003f26000396000f3fe6080604052600436106101095760003560e01c80638735181311610095578063d7bb99ba11610064578063d7bb99ba14610401578063e29eb8361461040b578063e522538114610436578063ec4cd0cf1461044d578063fbe5d87e1461047a57610109565b806387351813146103325780638da5cb5b1461035f578063953b8fb8146103a0578063c19d93fb146103cb57610109565b80633ccfd60b116100dc5780633ccfd60b14610245578063430ca46f1461025c57806355a3b2c11461027357806368bc0041146102d857806384bcefd41461030557610109565b806306fdde031461010e57806322f8e5661461019e57806329dcb0cf146101d957806338af3eed14610204575b600080fd5b34801561011a57600080fd5b506101236104a5565b6040518080602001828103825283818151815260200191508051906020019080838360005b83811015610163578082015181840152602081019050610148565b50505050905090810190601f1680156101905780820380516001836020036101000a031916815260200191505b509250505060405180910390f35b3480156101aa57600080fd5b506101d7600480360360208110156101c157600080fd5b8101908080359060200190929190505050610543565b005b3480156101e557600080fd5b506101ee61054d565b6040518082815260200191505060405180910390f35b34801561021057600080fd5b50610219610553565b604051808273ffffffffffffffffffffffffffffffffffffffff16815260200191505060405180910390f35b34801561025157600080fd5b5061025a610579565b005b34801561026857600080fd5b506102716107d5565b005b34801561027f57600080fd5b506102c26004803603602081101561029657600080fd5b81019080803573ffffffffffffffffffffffffffffffffffffffff1690602001909291905050506109a4565b6040518082815260200191505060405180910390f35b3480156102e457600080fd5b506102ed6109bc565b60405180821515815260200191505060405180910390f35b34801561031157600080fd5b5061031a6109cf565b60405180821515815260200191505060405180910390f35b34801561033e57600080fd5b506103476109e2565b60405180821515815260200191505060405180910390f35b34801561036b57600080fd5b50610374610a41565b604051808273ffffffffffffffffffffffffffffffffffffffff16815260200191505060405180910390f35b3480156103ac57600080fd5b506103b5610a67565b6040518082815260200191505060405180910390f35b3480156103d757600080fd5b506103e0610a6d565b604051808260038111156103f057fe5b815260200191505060405180910390f35b610409610a80565b005b34801561041757600080fd5b50610420610c00565b6040518082815260200191505060405180910390f35b34801561044257600080fd5b5061044b610c06565b005b34801561045957600080fd5b50610462610d51565b60405180821515815260200191505060405180910390f35b34801561048657600080fd5b5061048f610d80565b6040518082815260200191505060405180910390f35b60008054600181600116156101000203166002900480601f01602080910402602001604051908101604052809291908181526020018280546001816001161561010002031660029004801561053b5780601f106105105761010080835404028352916020019161053b565b820191906000526020600020905b81548152906001019060200180831161051e57829003601f168201915b505050505081565b8060088190555050565b60025481565b600360009054906101000a900473ffffffffffffffffffffffffffffffffffffffff1681565b600180600381111561058757fe5b600460149054906101000a900460ff1660038111156105a257fe5b14610615576040517f08c379a000000000000000000000000000000000000000000000000000000000815260040180806020018281038252600f8152602001807f45737461646f20496e76616c69646f000000000000000000000000000000000081525060200191505060405180910390fd5b6000600560003373ffffffffffffffffffffffffffffffffffffffff1673ffffffffffffffffffffffffffffffffffffffff16815260200190815260200160002054116106ca576040517f08c379a00000000000000000000000000000000000000000000000000000000081526004018080602001828103825260198152602001807f4e656e68756d206c616e636520666f6920656d697469646f2e0000000000000081525060200191505060405180910390fd5b6000600560003373ffffffffffffffffffffffffffffffffffffffff1673ffffffffffffffffffffffffffffffffffffffff1681526020019081526020016000205490506000600560003373ffffffffffffffffffffffffffffffffffffffff1673ffffffffffffffffffffffffffffffffffffffff168152602001908152602001600020819055503373ffffffffffffffffffffffffffffffffffffffff166108fc829081150290604051600060405180830381858888f193505050506107d15780600560003373ffffffffffffffffffffffffffffffffffffffff1673ffffffffffffffffffffffffffffffffffffffff168152602001908152602001600020819055505b5050565b60008060038111156107e357fe5b600460149054906101000a900460ff1660038111156107fe57fe5b14610871576040517f08c379a000000000000000000000000000000000000000000000000000000000815260040180806020018281038252600f8152602001807f45737461646f20496e76616c69646f000000000000000000000000000000000081525060200191505060405180910390fd5b6108796109bc565b156108cf576040517f08c379a0000000000000000000000000000000000000000000000000000000008152600401808060200182810382526032815260200180610d956032913960400191505060405180910390fd5b600660009054906101000a900460ff1661090c576001600460146101000a81548160ff0219169083600381111561090257fe5b0217905550610931565b6002600460146101000a81548160ff0219169083600381111561092b57fe5b02179055505b7f236d5677e6ff750148b321678c86818d1c753934fc881581103107776b75d89730600754600660009054906101000a900460ff16604051808473ffffffffffffffffffffffffffffffffffffffff1681526020018381526020018215158152602001935050505060405180910390a150565b60056020528060005260406000206000915090505481565b60006002546109c9610d8a565b10905090565b600660009054906101000a900460ff1681565b60008060038111156109f057fe5b600460149054906101000a900460ff166003811115610a0b57fe5b1480610a3c575060026003811115610a1f57fe5b600460149054906101000a900460ff166003811115610a3a57fe5b145b905090565b600460009054906101000a900473ffffffffffffffffffffffffffffffffffffffff1681565b60015481565b600460149054906101000a900460ff1681565b6000806003811115610a8e57fe5b600460149054906101000a900460ff166003811115610aa957fe5b14610b1c576040517f08c379a000000000000000000000000000000000000000000000000000000000815260040180806020018281038252600f8152602001807f45737461646f20496e76616c69646f000000000000000000000000000000000081525060200191505060405180910390fd5b610b246109bc565b610b79576040517f08c379a0000000000000000000000000000000000000000000000000000000008152600401808060200182810382526029815260200180610dc76029913960400191505060405180910390fd5b34600560003373ffffffffffffffffffffffffffffffffffffffff1673ffffffffffffffffffffffffffffffffffffffff168152602001908152602001600020600082825401925050819055503460076000828254019250508190555060015460075410610bfd576001600660006101000a81548160ff0219169083151502179055505b50565b60075481565b6002806003811115610c1457fe5b600460149054906101000a900460ff166003811115610c2f57fe5b14610ca2576040517f08c379a000000000000000000000000000000000000000000000000000000000815260040180806020018281038252600f8152602001807f45737461646f20496e76616c69646f000000000000000000000000000000000081525060200191505060405180910390fd5b600360009054906101000a900473ffffffffffffffffffffffffffffffffffffffff1673ffffffffffffffffffffffffffffffffffffffff166108fc6007549081150290604051600060405180830381858888f1935050505015610d29576003600460146101000a81548160ff02191690836003811115610d1f57fe5b0217905550610d4e565b6001600460146101000a81548160ff02191690836003811115610d4857fe5b02179055505b50565b6000600380811115610d5f57fe5b600460149054906101000a900460ff166003811115610d7a57fe5b14905090565b6000600754905090565b600060085490509056fe4e616f206520706f73736976656c207465726d696e6172206f206c65696c616f20616e74657320646f20646561646c696e654e616f2073616f207065726d697469646f73206c616e6365732061706f73206f20646561646c696e65a2646970667358221220676eb11de35dada3f253f01bd575a263ff22ce53f9721e12aefcde9f1b85d9ef64736f6c63430007040033",
  "immutableReferences": {},
  "source": "// SPDX-License-Identifier: ISC\npragma solidity ^0.7.4;\n\nimport \"./Auction.sol\";\n\ncontract AuctionTest is Auction {\n    // herança\n    uint time;\n\n    constructor (\n        string memory contractName,\n        uint targetAmountEth,\n        uint durationInMin,\n        address payable beneficiaryAddress\n    )\n        Auction(contractName, targetAmountEth, durationInMin, beneficiaryAddress)\n        public\n    {\n\n    }\n\n    function currentTime() override internal view returns(uint) {\n        return time;\n    }\n\n    function setCurrentTime(uint newTime) public {\n        time = newTime;\n    }\n}",
  "sourcePath": "/home/elton/dsa/formacao_engenheiro_blockchain/03_Desenvolvimento_Aplicacoes_Descentralizadas/Cap05_Contratos_Inteligentes_Avancados/projeto_leilao/contracts/AuctionTest.sol",
  "compiler": {
    "name": "solc",
    "version": "0.7.4+commit.3f05b770.Emscripten.clang"
  },
  "schemaVersion": "3.3.4",
  "updatedAt": "2021-02-27T13:24:20.096Z",
  "networkType": "ethereum",
  "devdoc": {
    "kind": "dev",
    "methods": {},
    "version": 1
  },
  "userdoc": {
    "kind": "user",
    "methods": {},
    "version": 1
  }
}