{
  "contractName": "Util",
  "abi": [
    {
      "inputs": [
        {
          "internalType": "uint256",
          "name": "sumInEth",
          "type": "uint256"
        }
      ],
      "name": "etherToWei",
      "outputs": [
        {
          "internalType": "uint256",
          "name": "",
          "type": "uint256"
        }
      ],
      "stateMutability": "pure",
      "type": "function",
      "constant": true
    },
    {
      "inputs": [
        {
          "internalType": "uint256",
          "name": "timeInMin",
          "type": "uint256"
        }
      ],
      "name": "minutesToSeconds",
      "outputs": [
        {
          "internalType": "uint256",
          "name": "",
          "type": "uint256"
        }
      ],
      "stateMutability": "pure",
      "type": "function",
      "constant": true
    }
  ],
  "bytecode": "0x610117610026600b82828239805160001a60731461001957fe5b30600052607381538281f3fe7300000000000000000000000000000000000000003014608060405260043610603d5760003560e01c8063529b380f146042578063d8916bb9146081575b600080fd5b606b60048036036020811015605657600080fd5b810190808035906020019092919050505060c0565b6040518082815260200191505060405180910390f35b60aa60048036036020811015609557600080fd5b810190808035906020019092919050505060cd565b6040518082815260200191505060405180910390f35b6000603c82029050919050565b6000670de0b6b3a76400008202905091905056fea26469706673582212208569158cdf6e3e2b2d298825bcb8f5955561e4adcc2822ad96adf9cf4e51a31164736f6c63430007040033",
  "immutableReferences": {},
  "source": "// SPDX-License-Identifier: ISC\npragma solidity ^0.7.4;\n\nlibrary Util {\n\n    function etherToWei(uint sumInEth) public pure returns(uint) {\n        return sumInEth * 1 ether;\n    }\n\n    function minutesToSeconds(uint timeInMin) public pure returns(uint) {\n        return timeInMin * 1 minutes;  // na blockchain grava o tempo em segundos\n    }\n}",
  "sourcePath": "/home/elton/dsa/formacao_engenheiro_blockchain/03_Desenvolvimento_Aplicacoes_Descentralizadas/Cap05_Contratos_Inteligentes_Avancados/projeto_leilao/contracts/Util.sol",
  "compiler": {
    "name": "solc",
    "version": "0.7.4+commit.3f05b770.Emscripten.clang"
  },
  "schemaVersion": "3.3.4",
  "updatedAt": "2021-02-27T13:24:20.082Z",
  "networkType": "ethereum",
  "devdoc": {
    "kind": "dev",
    "methods": {},
    "version": 1
  },
  "userdoc": {
    "kind": "user",
    "methods": {},
    "version": 1
  }
}